{
  "_format": "hh-sol-artifact-1",
  "contractName": "WillsNFT",
  "sourceName": "contracts/WillsNFT.sol",
  "abi": [
    {
      "inputs": [
        {
          "internalType": "string",
          "name": "name",
          "type": "string"
        },
        {
          "internalType": "string",
          "name": "symbol",
          "type": "string"
        }
      ],
      "stateMutability": "nonpayable",
      "type": "constructor"
    },
    {
      "inputs": [
        {
          "internalType": "address",
          "name": "sender",
          "type": "address"
        },
        {
          "internalType": "uint256",
          "name": "tokenId",
          "type": "uint256"
        },
        {
          "internalType": "address",
          "name": "owner",
          "type": "address"
        }
      ],
      "name": "ERC721IncorrectOwner",
      "type": "error"
    },
    {
      "inputs": [
        {
          "internalType": "address",
          "name": "operator",
          "type": "address"
        },
        {
          "internalType": "uint256",
          "name": "tokenId",
          "type": "uint256"
        }
      ],
      "name": "ERC721InsufficientApproval",
      "type": "error"
    },
    {
      "inputs": [
        {
          "internalType": "address",
          "name": "approver",
          "type": "address"
        }
      ],
      "name": "ERC721InvalidApprover",
      "type": "error"
    },
    {
      "inputs": [
        {
          "internalType": "address",
          "name": "operator",
          "type": "address"
        }
      ],
      "name": "ERC721InvalidOperator",
      "type": "error"
    },
    {
      "inputs": [
        {
          "internalType": "address",
          "name": "owner",
          "type": "address"
        }
      ],
      "name": "ERC721InvalidOwner",
      "type": "error"
    },
    {
      "inputs": [
        {
          "internalType": "address",
          "name": "receiver",
          "type": "address"
        }
      ],
      "name": "ERC721InvalidReceiver",
      "type": "error"
    },
    {
      "inputs": [
        {
          "internalType": "address",
          "name": "sender",
          "type": "address"
        }
      ],
      "name": "ERC721InvalidSender",
      "type": "error"
    },
    {
      "inputs": [
        {
          "internalType": "uint256",
          "name": "tokenId",
          "type": "uint256"
        }
      ],
      "name": "ERC721NonexistentToken",
      "type": "error"
    },
    {
      "inputs": [
        {
          "internalType": "address",
          "name": "owner",
          "type": "address"
        }
      ],
      "name": "OwnableInvalidOwner",
      "type": "error"
    },
    {
      "inputs": [
        {
          "internalType": "address",
          "name": "account",
          "type": "address"
        }
      ],
      "name": "OwnableUnauthorizedAccount",
      "type": "error"
    },
    {
      "inputs": [],
      "name": "ReentrancyGuardReentrantCall",
      "type": "error"
    },
    {
      "anonymous": false,
      "inputs": [
        {
          "indexed": true,
          "internalType": "address",
          "name": "owner",
          "type": "address"
        },
        {
          "indexed": true,
          "internalType": "address",
          "name": "approved",
          "type": "address"
        },
        {
          "indexed": true,
          "internalType": "uint256",
          "name": "tokenId",
          "type": "uint256"
        }
      ],
      "name": "Approval",
      "type": "event"
    },
    {
      "anonymous": false,
      "inputs": [
        {
          "indexed": true,
          "internalType": "address",
          "name": "owner",
          "type": "address"
        },
        {
          "indexed": true,
          "internalType": "address",
          "name": "operator",
          "type": "address"
        },
        {
          "indexed": false,
          "internalType": "bool",
          "name": "approved",
          "type": "bool"
        }
      ],
      "name": "ApprovalForAll",
      "type": "event"
    },
    {
      "anonymous": false,
      "inputs": [
        {
          "indexed": false,
          "internalType": "uint256",
          "name": "_fromTokenId",
          "type": "uint256"
        },
        {
          "indexed": false,
          "internalType": "uint256",
          "name": "_toTokenId",
          "type": "uint256"
        }
      ],
      "name": "BatchMetadataUpdate",
      "type": "event"
    },
    {
      "anonymous": false,
      "inputs": [
        {
          "indexed": true,
          "internalType": "uint256",
          "name": "tokenId",
          "type": "uint256"
        },
        {
          "indexed": false,
          "internalType": "uint256",
          "name": "newEmergencyDelay",
          "type": "uint256"
        }
      ],
      "name": "EmergencyUpdated",
      "type": "event"
    },
    {
      "anonymous": false,
      "inputs": [
        {
          "indexed": true,
          "internalType": "uint256",
          "name": "tokenId",
          "type": "uint256"
        },
        {
          "indexed": true,
          "internalType": "address",
          "name": "newExecutor",
          "type": "address"
        }
      ],
      "name": "ExecutorUpdated",
      "type": "event"
    },
    {
      "anonymous": false,
      "inputs": [
        {
          "indexed": false,
          "internalType": "uint256",
          "name": "_tokenId",
          "type": "uint256"
        }
      ],
      "name": "MetadataUpdate",
      "type": "event"
    },
    {
      "anonymous": false,
      "inputs": [
        {
          "indexed": true,
          "internalType": "address",
          "name": "previousOwner",
          "type": "address"
        },
        {
          "indexed": true,
          "internalType": "address",
          "name": "newOwner",
          "type": "address"
        }
      ],
      "name": "OwnershipTransferred",
      "type": "event"
    },
    {
      "anonymous": false,
      "inputs": [
        {
          "indexed": true,
          "internalType": "address",
          "name": "from",
          "type": "address"
        },
        {
          "indexed": true,
          "internalType": "address",
          "name": "to",
          "type": "address"
        },
        {
          "indexed": true,
          "internalType": "uint256",
          "name": "tokenId",
          "type": "uint256"
        }
      ],
      "name": "Transfer",
      "type": "event"
    },
    {
      "anonymous": false,
      "inputs": [
        {
          "indexed": true,
          "internalType": "uint256",
          "name": "tokenId",
          "type": "uint256"
        },
        {
          "indexed": true,
          "internalType": "address",
          "name": "creator",
          "type": "address"
        },
        {
          "indexed": false,
          "internalType": "string",
          "name": "ipfsHash",
          "type": "string"
        }
      ],
      "name": "WillCreated",
      "type": "event"
    },
    {
      "anonymous": false,
      "inputs": [
        {
          "indexed": true,
          "internalType": "uint256",
          "name": "tokenId",
          "type": "uint256"
        },
        {
          "indexed": true,
          "internalType": "address",
          "name": "executor",
          "type": "address"
        },
        {
          "indexed": false,
          "internalType": "uint256",
          "name": "timestamp",
          "type": "uint256"
        }
      ],
      "name": "WillExecuted",
      "type": "event"
    },
    {
      "anonymous": false,
      "inputs": [
        {
          "indexed": true,
          "internalType": "uint256",
          "name": "tokenId",
          "type": "uint256"
        },
        {
          "indexed": false,
          "internalType": "string",
          "name": "newIpfsHash",
          "type": "string"
        }
      ],
      "name": "WillUpdated",
      "type": "event"
    },
    {
      "inputs": [],
      "name": "MAX_EMERGENCY_DELAY",
      "outputs": [
        {
          "internalType": "uint256",
          "name": "",
          "type": "uint256"
        }
      ],
      "stateMutability": "view",
      "type": "function"
    },
    {
      "inputs": [],
      "name": "MIN_EMERGENCY_DELAY",
      "outputs": [
        {
          "internalType": "uint256",
          "name": "",
          "type": "uint256"
        }
      ],
      "stateMutability": "view",
      "type": "function"
    },
    {
      "inputs": [
        {
          "internalType": "address",
          "name": "to",
          "type": "address"
        },
        {
          "internalType": "uint256",
          "name": "tokenId",
          "type": "uint256"
        }
      ],
      "name": "approve",
      "outputs": [],
      "stateMutability": "nonpayable",
      "type": "function"
    },
    {
      "inputs": [
        {
          "internalType": "address",
          "name": "contractAddress",
          "type": "address"
        }
      ],
      "name": "authorizeContract",
      "outputs": [],
      "stateMutability": "nonpayable",
      "type": "function"
    },
    {
      "inputs": [
        {
          "internalType": "uint256",
          "name": "tokenId",
          "type": "uint256"
        },
        {
          "internalType": "address",
          "name": "viewer",
          "type": "address"
        }
      ],
      "name": "authorizeViewer",
      "outputs": [],
      "stateMutability": "nonpayable",
      "type": "function"
    },
    {
      "inputs": [
        {
          "internalType": "address",
          "name": "owner",
          "type": "address"
        }
      ],
      "name": "balanceOf",
      "outputs": [
        {
          "internalType": "uint256",
          "name": "",
          "type": "uint256"
        }
      ],
      "stateMutability": "view",
      "type": "function"
    },
    {
      "inputs": [
        {
          "internalType": "uint256",
          "name": "tokenId",
          "type": "uint256"
        }
      ],
      "name": "canEmergencyExecute",
      "outputs": [
        {
          "internalType": "bool",
          "name": "",
          "type": "bool"
        }
      ],
      "stateMutability": "view",
      "type": "function"
    },
    {
      "inputs": [
        {
          "internalType": "string",
          "name": "_ipfsHash",
          "type": "string"
        },
        {
          "internalType": "address",
          "name": "_executor",
          "type": "address"
        },
        {
          "internalType": "uint256",
          "name": "_emergencyDelay",
          "type": "uint256"
        }
      ],
      "name": "createWill",
      "outputs": [
        {
          "internalType": "uint256",
          "name": "",
          "type": "uint256"
        }
      ],
      "stateMutability": "nonpayable",
      "type": "function"
    },
    {
      "inputs": [
        {
          "internalType": "uint256",
          "name": "tokenId",
          "type": "uint256"
        }
      ],
      "name": "emergencyExecuteWill",
      "outputs": [],
      "stateMutability": "nonpayable",
      "type": "function"
    },
    {
      "inputs": [
        {
          "internalType": "uint256",
          "name": "tokenId",
          "type": "uint256"
        },
        {
          "internalType": "address",
          "name": "executor",
          "type": "address"
        }
      ],
      "name": "emergencyExecuteWillByContract",
      "outputs": [],
      "stateMutability": "nonpayable",
      "type": "function"
    },
    {
      "inputs": [
        {
          "internalType": "uint256",
          "name": "tokenId",
          "type": "uint256"
        }
      ],
      "name": "executeWill",
      "outputs": [],
      "stateMutability": "nonpayable",
      "type": "function"
    },
    {
      "inputs": [
        {
          "internalType": "uint256",
          "name": "tokenId",
          "type": "uint256"
        },
        {
          "internalType": "address",
          "name": "executor",
          "type": "address"
        }
      ],
      "name": "executeWillByContract",
      "outputs": [],
      "stateMutability": "nonpayable",
      "type": "function"
    },
    {
      "inputs": [
        {
          "internalType": "uint256",
          "name": "tokenId",
          "type": "uint256"
        }
      ],
      "name": "exists",
      "outputs": [
        {
          "internalType": "bool",
          "name": "",
          "type": "bool"
        }
      ],
      "stateMutability": "view",
      "type": "function"
    },
    {
      "inputs": [
        {
          "internalType": "uint256",
          "name": "tokenId",
          "type": "uint256"
        }
      ],
      "name": "getApproved",
      "outputs": [
        {
          "internalType": "address",
          "name": "",
          "type": "address"
        }
      ],
      "stateMutability": "view",
      "type": "function"
    },
    {
      "inputs": [
        {
          "internalType": "uint256",
          "name": "tokenId",
          "type": "uint256"
        }
      ],
      "name": "getExecutor",
      "outputs": [
        {
          "internalType": "address",
          "name": "",
          "type": "address"
        }
      ],
      "stateMutability": "view",
      "type": "function"
    },
    {
      "inputs": [
        {
          "internalType": "uint256",
          "name": "tokenId",
          "type": "uint256"
        }
      ],
      "name": "getIsExecuted",
      "outputs": [
        {
          "internalType": "bool",
          "name": "",
          "type": "bool"
        }
      ],
      "stateMutability": "view",
      "type": "function"
    },
    {
      "inputs": [],
      "name": "getNextTokenId",
      "outputs": [
        {
          "internalType": "uint256",
          "name": "",
          "type": "uint256"
        }
      ],
      "stateMutability": "view",
      "type": "function"
    },
    {
      "inputs": [
        {
          "internalType": "address",
          "name": "user",
          "type": "address"
        }
      ],
      "name": "getUserWills",
      "outputs": [
        {
          "internalType": "uint256[]",
          "name": "",
          "type": "uint256[]"
        }
      ],
      "stateMutability": "view",
      "type": "function"
    },
    {
      "inputs": [
        {
          "internalType": "uint256",
          "name": "tokenId",
          "type": "uint256"
        }
      ],
      "name": "getWillData",
      "outputs": [
        {
          "internalType": "string",
          "name": "ipfsHash",
          "type": "string"
        },
        {
          "internalType": "address",
          "name": "creator",
          "type": "address"
        },
        {
          "internalType": "address",
          "name": "executor",
          "type": "address"
        },
        {
          "internalType": "uint256",
          "name": "createdAt",
          "type": "uint256"
        },
        {
          "internalType": "uint256",
          "name": "lastUpdateAt",
          "type": "uint256"
        },
        {
          "internalType": "uint256",
          "name": "emergencyDelay",
          "type": "uint256"
        },
        {
          "internalType": "bool",
          "name": "isExecuted",
          "type": "bool"
        }
      ],
      "stateMutability": "view",
      "type": "function"
    },
    {
      "inputs": [
        {
          "internalType": "address",
          "name": "owner",
          "type": "address"
        },
        {
          "internalType": "address",
          "name": "operator",
          "type": "address"
        }
      ],
      "name": "isApprovedForAll",
      "outputs": [
        {
          "internalType": "bool",
          "name": "",
          "type": "bool"
        }
      ],
      "stateMutability": "view",
      "type": "function"
    },
    {
      "inputs": [
        {
          "internalType": "uint256",
          "name": "tokenId",
          "type": "uint256"
        },
        {
          "internalType": "address",
          "name": "viewer",
          "type": "address"
        }
      ],
      "name": "isAuthorizedViewer",
      "outputs": [
        {
          "internalType": "bool",
          "name": "",
          "type": "bool"
        }
      ],
      "stateMutability": "view",
      "type": "function"
    },
    {
      "inputs": [],
      "name": "name",
      "outputs": [
        {
          "internalType": "string",
          "name": "",
          "type": "string"
        }
      ],
      "stateMutability": "view",
      "type": "function"
    },
    {
      "inputs": [],
      "name": "owner",
      "outputs": [
        {
          "internalType": "address",
          "name": "",
          "type": "address"
        }
      ],
      "stateMutability": "view",
      "type": "function"
    },
    {
      "inputs": [
        {
          "internalType": "uint256",
          "name": "tokenId",
          "type": "uint256"
        }
      ],
      "name": "ownerOf",
      "outputs": [
        {
          "internalType": "address",
          "name": "",
          "type": "address"
        }
      ],
      "stateMutability": "view",
      "type": "function"
    },
    {
      "inputs": [],
      "name": "renounceOwnership",
      "outputs": [],
      "stateMutability": "nonpayable",
      "type": "function"
    },
    {
      "inputs": [
        {
          "internalType": "address",
          "name": "contractAddress",
          "type": "address"
        }
      ],
      "name": "revokeContract",
      "outputs": [],
      "stateMutability": "nonpayable",
      "type": "function"
    },
    {
      "inputs": [
        {
          "internalType": "uint256",
          "name": "tokenId",
          "type": "uint256"
        },
        {
          "internalType": "address",
          "name": "viewer",
          "type": "address"
        }
      ],
      "name": "revokeViewer",
      "outputs": [],
      "stateMutability": "nonpayable",
      "type": "function"
    },
    {
      "inputs": [
        {
          "internalType": "address",
          "name": "from",
          "type": "address"
        },
        {
          "internalType": "address",
          "name": "to",
          "type": "address"
        },
        {
          "internalType": "uint256",
          "name": "tokenId",
          "type": "uint256"
        }
      ],
      "name": "safeTransferFrom",
      "outputs": [],
      "stateMutability": "nonpayable",
      "type": "function"
    },
    {
      "inputs": [
        {
          "internalType": "address",
          "name": "from",
          "type": "address"
        },
        {
          "internalType": "address",
          "name": "to",
          "type": "address"
        },
        {
          "internalType": "uint256",
          "name": "tokenId",
          "type": "uint256"
        },
        {
          "internalType": "bytes",
          "name": "data",
          "type": "bytes"
        }
      ],
      "name": "safeTransferFrom",
      "outputs": [],
      "stateMutability": "nonpayable",
      "type": "function"
    },
    {
      "inputs": [
        {
          "internalType": "address",
          "name": "operator",
          "type": "address"
        },
        {
          "internalType": "bool",
          "name": "approved",
          "type": "bool"
        }
      ],
      "name": "setApprovalForAll",
      "outputs": [],
      "stateMutability": "nonpayable",
      "type": "function"
    },
    {
      "inputs": [
        {
          "internalType": "bytes4",
          "name": "interfaceId",
          "type": "bytes4"
        }
      ],
      "name": "supportsInterface",
      "outputs": [
        {
          "internalType": "bool",
          "name": "",
          "type": "bool"
        }
      ],
      "stateMutability": "view",
      "type": "function"
    },
    {
      "inputs": [],
      "name": "symbol",
      "outputs": [
        {
          "internalType": "string",
          "name": "",
          "type": "string"
        }
      ],
      "stateMutability": "view",
      "type": "function"
    },
    {
      "inputs": [
        {
          "internalType": "uint256",
          "name": "tokenId",
          "type": "uint256"
        }
      ],
      "name": "tokenURI",
      "outputs": [
        {
          "internalType": "string",
          "name": "",
          "type": "string"
        }
      ],
      "stateMutability": "view",
      "type": "function"
    },
    {
      "inputs": [
        {
          "internalType": "address",
          "name": "from",
          "type": "address"
        },
        {
          "internalType": "address",
          "name": "to",
          "type": "address"
        },
        {
          "internalType": "uint256",
          "name": "tokenId",
          "type": "uint256"
        }
      ],
      "name": "transferFrom",
      "outputs": [],
      "stateMutability": "nonpayable",
      "type": "function"
    },
    {
      "inputs": [
        {
          "internalType": "address",
          "name": "newOwner",
          "type": "address"
        }
      ],
      "name": "transferOwnership",
      "outputs": [],
      "stateMutability": "nonpayable",
      "type": "function"
    },
    {
      "inputs": [
        {
          "internalType": "uint256",
          "name": "tokenId",
          "type": "uint256"
        },
        {
          "internalType": "uint256",
          "name": "_newEmergencyDelay",
          "type": "uint256"
        }
      ],
      "name": "updateEmergencyDelay",
      "outputs": [],
      "stateMutability": "nonpayable",
      "type": "function"
    },
    {
      "inputs": [
        {
          "internalType": "uint256",
          "name": "tokenId",
          "type": "uint256"
        },
        {
          "internalType": "address",
          "name": "_newExecutor",
          "type": "address"
        }
      ],
      "name": "updateExecutor",
      "outputs": [],
      "stateMutability": "nonpayable",
      "type": "function"
    },
    {
      "inputs": [
        {
          "internalType": "uint256",
          "name": "tokenId",
          "type": "uint256"
        },
        {
          "internalType": "string",
          "name": "_newIpfsHash",
          "type": "string"
        }
      ],
      "name": "updateWill",
      "outputs": [],
      "stateMutability": "nonpayable",
      "type": "function"
    }
  ],
  "bytecode": "0x608060405234801561001057600080fd5b50604051612dd0380380612dd083398101604081905261002f9161019d565b338282600061003e838261028f565b50600161004b828261028f565b5050506001600160a01b03811661007c57604051631e4fbdf760e01b81526000600482015260240160405180910390fd5b61008581610092565b505060016008555061034d565b600780546001600160a01b038381166001600160a01b0319831681179093556040519116919082907f8be0079c531659141344cd1fd0a4f28419497f9722a3daafe3b4186f6b6457e090600090a35050565b634e487b7160e01b600052604160045260246000fd5b600082601f83011261010b57600080fd5b81516001600160401b03811115610124576101246100e4565b604051601f8201601f19908116603f011681016001600160401b0381118282101715610152576101526100e4565b60405281815283820160200185101561016a57600080fd5b60005b828110156101895760208186018101518383018201520161016d565b506000918101602001919091529392505050565b600080604083850312156101b057600080fd5b82516001600160401b038111156101c657600080fd5b6101d2858286016100fa565b602085015190935090506001600160401b038111156101f057600080fd5b6101fc858286016100fa565b9150509250929050565b600181811c9082168061021a57607f821691505b60208210810361023a57634e487b7160e01b600052602260045260246000fd5b50919050565b601f82111561028a57806000526020600020601f840160051c810160208510156102675750805b601f840160051c820191505b818110156102875760008155600101610273565b50505b505050565b81516001600160401b038111156102a8576102a86100e4565b6102bc816102b68454610206565b84610240565b6020601f8211600181146102f057600083156102d85750848201515b600019600385901b1c1916600184901b178455610287565b600084815260208120601f198516915b828110156103205787850151825560209485019460019092019101610300565b508482101561033e5786840151600019600387901b60f8161c191681555b50505050600190811b01905550565b612a748061035c6000396000f3fe608060405234801561001057600080fd5b50600436106102325760003560e01c8063715018a611610130578063a22cb465116100b8578063cc2e3ee11161007c578063cc2e3ee1146104dd578063e53b1746146104f0578063e985e9c514610503578063f2fde38b14610516578063fb1f5bfd1461052957600080fd5b8063a22cb46514610489578063abdc0c211461049c578063b88d4fde146104af578063c87b56dd146104c2578063caa0f92a146104d557600080fd5b806390157816116100ff578063901578161461042257806395d89b41146104355780639e2eb7c71461043d578063a00f9f8b14610463578063a1f0c4021461047657600080fd5b8063715018a6146103ec578063762bee0b146103f457806378364baf146103fe5780638da5cb5b1461041157600080fd5b80632e6073c0116101be5780636352211e116101825780636352211e1461038d578063652d7ded146103a0578063653fa68b146103b357806367561d93146103c657806370a08231146103d957600080fd5b80632e6073c01461032157806342842e0e14610341578063470430b014610354578063486ade70146103675780634f558e791461037a57600080fd5b80630d242ce1116102055780630d242ce1146102b457806319ed1ccc146102d557806323b872dd146102e857806326bc629c146102fb57806328ca709e1461030e57600080fd5b806301ffc9a71461023757806306fdde031461025f578063081812fc14610274578063095ea7b31461029f575b600080fd5b61024a610245366004612369565b610534565b60405190151581526020015b60405180910390f35b610267610545565b60405161025691906123d6565b6102876102823660046123e9565b6105d7565b6040516001600160a01b039091168152602001610256565b6102b26102ad36600461241e565b610600565b005b6102c76102c23660046124f8565b61060f565b604051908152602001610256565b61024a6102e33660046123e9565b61087f565b6102b26102f6366004612550565b6108e0565b6102b261030936600461257c565b61096b565b6102b261031c36600461257c565b610ae1565b61033461032f3660046125a8565b610cad565b60405161025691906125c3565b6102b261034f366004612550565b610d19565b61024a6103623660046123e9565b610d39565b6102876103753660046123e9565b610d79565b61024a6103883660046123e9565b610dbf565b61028761039b3660046123e9565b610dca565b61024a6103ae36600461257c565b610dd5565b6102b26103c13660046123e9565b610e2c565b6102b26103d43660046125a8565b610f52565b6102c76103e73660046125a8565b610fd4565b6102b261101c565b6102c762278d0081565b6102b261040c366004612606565b611030565b6007546001600160a01b0316610287565b6102b261043036600461257c565b6111a8565b6102676112b7565b61045061044b3660046123e9565b6112c6565b604051610256979695949392919061264d565b6102b261047136600461257c565b61148b565b6102b261048436600461269c565b611541565b6102b26104973660046126be565b6116b9565b6102b26104aa36600461257c565b6116c4565b6102b26104bd3660046126fa565b6117e6565b6102676104d03660046123e9565b6117fe565b6009546102c7565b6102b26104eb3660046125a8565b611809565b6102b26104fe3660046123e9565b611832565b61024a610511366004612776565b6118f2565b6102b26105243660046125a8565b611920565b6102c76301e1338081565b600061053f8261195e565b92915050565b606060008054610554906127a0565b80601f0160208091040260200160405190810160405280929190818152602001828054610580906127a0565b80156105cd5780601f106105a2576101008083540402835291602001916105cd565b820191906000526020600020905b8154815290600101906020018083116105b057829003601f168201915b5050505050905090565b60006105e282611983565b506000828152600460205260409020546001600160a01b031661053f565b61060b8282336119bc565b5050565b60006106196119c9565b600084511161066b5760405162461bcd60e51b81526020600482015260196024820152784950465320686173682063616e6e6f7420626520656d70747960381b60448201526064015b60405180910390fd5b6001600160a01b0383166106c15760405162461bcd60e51b815260206004820152601f60248201527f4578656375746f722063616e6e6f74206265207a65726f2061646472657373006044820152606401610662565b336001600160a01b038416036107195760405162461bcd60e51b815260206004820152601b60248201527f43616e6e6f74207365742073656c66206173206578656375746f7200000000006044820152606401610662565b62278d00821015801561073057506301e133808211155b61077c5760405162461bcd60e51b815260206004820152601e60248201527f496e76616c696420656d657267656e63792064656c617920706572696f6400006044820152606401610662565b60098054908190600061078e836127f0565b919050555061079d33826119f3565b6107a78186611a0d565b6000818152600a60205260409020806107c08782612850565b5060018181018054336001600160a01b031991821681179092556002840180549091166001600160a01b038916179055426003840181905560048401556005830186905560068301805460ff191690556000818152600b602090815260408083208054958601815583529120909201849055905183907f42b5058d396dd25a0127d7e06627d61828d0c20ec701fbd852315e11411b644490610863908a906123d6565b60405180910390a35090506108786001600855565b9392505050565b600061088a82611a5d565b15806108a757506000828152600a602052604090206006015460ff165b156108b457506000919050565b6000828152600a6020526040902060058101546004909101546108d7919061290f565b42101592915050565b6001600160a01b03821661090a57604051633250574960e11b815260006004820152602401610662565b6000610917838333611a7a565b9050836001600160a01b0316816001600160a01b031614610965576040516364283d7b60e01b81526001600160a01b0380861660048301526024820184905282166044820152606401610662565b50505050565b61097482611a5d565b6109905760405162461bcd60e51b815260040161066290612922565b336000908152600c602052604090205460ff166109e95760405162461bcd60e51b815260206004820152601760248201527610dbdb9d1c9858dd081b9bdd08185d5d1a1bdc9a5e9959604a1b6044820152606401610662565b6000828152600a60205260409020600201546001600160a01b03828116911614610a485760405162461bcd60e51b815260206004820152601060248201526f24b73b30b634b21032bc32b1baba37b960811b6044820152606401610662565b6000828152600a602052604090206006015460ff1615610a7a5760405162461bcd60e51b81526004016106629061294f565b6000828152600a602052604090819020600601805460ff19166001179055516001600160a01b0382169083907f089a77caaed40e2993ad1c11237fd6b19925bc33e49db209059648a257f76d2590610ad59042815260200190565b60405180910390a35050565b610aea82611a5d565b610b065760405162461bcd60e51b815260040161066290612922565b33610b1083610dca565b6001600160a01b031614610b665760405162461bcd60e51b815260206004820152601e60248201527f4f6e6c79206f776e65722063616e20757064617465206578656375746f7200006044820152606401610662565b6000828152600a602052604090206006015460ff1615610b985760405162461bcd60e51b81526004016106629061297e565b6001600160a01b038116610bee5760405162461bcd60e51b815260206004820152601f60248201527f4578656375746f722063616e6e6f74206265207a65726f2061646472657373006044820152606401610662565b336001600160a01b03821603610c465760405162461bcd60e51b815260206004820152601b60248201527f43616e6e6f74207365742073656c66206173206578656375746f7200000000006044820152606401610662565b6000828152600a60205260408082206002810180546001600160a01b0319166001600160a01b038616908117909155426004909201919091559051909184917f5669517abe6077705de980df08616aa917503e4c9dc3aabca3eba0b463b904129190a35050565b6001600160a01b0381166000908152600b6020908152604091829020805483518184028101840190945280845260609392830182828015610d0d57602002820191906000526020600020905b815481526020019060010190808311610cf9575b50505050509050919050565b610d34838383604051806020016040528060008152506117e6565b505050565b6000610d4482611a5d565b610d605760405162461bcd60e51b815260040161066290612922565b506000908152600a602052604090206006015460ff1690565b6000610d8482611a5d565b610da05760405162461bcd60e51b815260040161066290612922565b506000908152600a60205260409020600201546001600160a01b031690565b600061053f82611a5d565b600061053f82611983565b6000610de083611a5d565b610dfc5760405162461bcd60e51b815260040161066290612922565b506000828152600a602090815260408083206001600160a01b038516845260070190915290205460ff1692915050565b610e3581611a5d565b610e515760405162461bcd60e51b815260040161066290612922565b6000818152600a602052604090206006015460ff1615610e835760405162461bcd60e51b81526004016106629061294f565b6000818152600a602052604090206005810154600490910154610ea6919061290f565b421015610ef55760405162461bcd60e51b815260206004820152601e60248201527f456d657267656e63792064656c617920706572696f64206e6f74206d657400006044820152606401610662565b6000818152600a602052604090819020600601805460ff1916600117905551339082907f089a77caaed40e2993ad1c11237fd6b19925bc33e49db209059648a257f76d2590610f479042815260200190565b60405180910390a350565b610f5a611a8f565b6001600160a01b038116610fb05760405162461bcd60e51b815260206004820152601d60248201527f43616e6e6f7420617574686f72697a65207a65726f20616464726573730000006044820152606401610662565b6001600160a01b03166000908152600c60205260409020805460ff19166001179055565b60006001600160a01b038216611000576040516322718ad960e21b815260006004820152602401610662565b506001600160a01b031660009081526003602052604090205490565b611024611a8f565b61102e6000611abc565b565b61103982611a5d565b6110555760405162461bcd60e51b815260040161066290612922565b3361105f83610dca565b6001600160a01b0316146110b55760405162461bcd60e51b815260206004820152601a60248201527f4f6e6c79206f776e65722063616e207570646174652077696c6c0000000000006044820152606401610662565b6000828152600a602052604090206006015460ff16156110e75760405162461bcd60e51b81526004016106629061297e565b60008151116111345760405162461bcd60e51b81526020600482015260196024820152784950465320686173682063616e6e6f7420626520656d70747960381b6044820152606401610662565b6000828152600a6020526040902061114c8282612850565b506000828152600a602052604090204260049091015561116c8282611a0d565b817f526ced08e84fd615c22e809cb1b45eb1e2a4880f5cb2b0167b575a5bb1622c508260405161119c91906123d6565b60405180910390a25050565b6111b182611a5d565b6111cd5760405162461bcd60e51b815260040161066290612922565b336111d783610dca565b6001600160a01b03161461122d5760405162461bcd60e51b815260206004820181905260248201527f4f6e6c79206f776e65722063616e20617574686f72697a6520766965776572736044820152606401610662565b6001600160a01b0381166112835760405162461bcd60e51b815260206004820152601d60248201527f43616e6e6f7420617574686f72697a65207a65726f20616464726573730000006044820152606401610662565b6000918252600a602090815260408084206001600160a01b039093168452600790920190529020805460ff19166001179055565b606060018054610554906127a0565b60606000806000806000806112da88611a5d565b6112f65760405162461bcd60e51b815260040161066290612922565b3361130089610dca565b6001600160a01b0316148061132e57506000888152600a60205260409020600201546001600160a01b031633145b8061135557506000888152600a6020908152604080832033845260070190915290205460ff165b6113a15760405162461bcd60e51b815260206004820181905260248201527f4e6f7420617574686f72697a656420746f207669657720746869732077696c6c6044820152606401610662565b6000888152600a60205260409020600181015460028201546003830154600484015460058501546006860154865487966001600160a01b0390811696169493929160ff169087906113f1906127a0565b80601f016020809104026020016040519081016040528092919081815260200182805461141d906127a0565b801561146a5780601f1061143f5761010080835404028352916020019161146a565b820191906000526020600020905b81548152906001019060200180831161144d57829003601f168201915b50505050509650975097509750975097509750975050919395979092949650565b61149482611a5d565b6114b05760405162461bcd60e51b815260040161066290612922565b336114ba83610dca565b6001600160a01b0316146115105760405162461bcd60e51b815260206004820152601d60248201527f4f6e6c79206f776e65722063616e207265766f6b6520766965776572730000006044820152606401610662565b6000918252600a602090815260408084206001600160a01b039093168452600790920190529020805460ff19169055565b61154a82611a5d565b6115665760405162461bcd60e51b815260040161066290612922565b3361157083610dca565b6001600160a01b0316146115d45760405162461bcd60e51b815260206004820152602560248201527f4f6e6c79206f776e65722063616e2075706461746520656d657267656e63792060448201526464656c617960d81b6064820152608401610662565b6000828152600a602052604090206006015460ff16156116065760405162461bcd60e51b81526004016106629061297e565b62278d00811015801561161d57506301e133808111155b6116695760405162461bcd60e51b815260206004820152601e60248201527f496e76616c696420656d657267656e63792064656c617920706572696f6400006044820152606401610662565b6000828152600a60205260409081902060058101839055426004909101555182907f664ab2b972a0a1b4e9877b8dc897576eccf9f0f5466f820e62a4aab8ceb451109061119c9084815260200190565b61060b338383611b0e565b6116cd82611a5d565b6116e95760405162461bcd60e51b815260040161066290612922565b336000908152600c602052604090205460ff166117425760405162461bcd60e51b815260206004820152601760248201527610dbdb9d1c9858dd081b9bdd08185d5d1a1bdc9a5e9959604a1b6044820152606401610662565b6000828152600a602052604090206006015460ff16156117745760405162461bcd60e51b81526004016106629061294f565b6000828152600a602052604090206005810154600490910154611797919061290f565b421015610a7a5760405162461bcd60e51b815260206004820152601e60248201527f456d657267656e63792064656c617920706572696f64206e6f74206d657400006044820152606401610662565b6117f18484846108e0565b6109653385858585611bad565b606061053f82611cd8565b611811611a8f565b6001600160a01b03166000908152600c60205260409020805460ff19169055565b61183b81611a5d565b6118575760405162461bcd60e51b815260040161066290612922565b6000818152600a60205260409020600201546001600160a01b031633146118c05760405162461bcd60e51b815260206004820152601e60248201527f4f6e6c79206578656375746f722063616e20657865637574652077696c6c00006044820152606401610662565b6000818152600a602052604090206006015460ff1615610ef55760405162461bcd60e51b81526004016106629061294f565b6001600160a01b03918216600090815260056020908152604080832093909416825291909152205460ff1690565b611928611a8f565b6001600160a01b03811661195257604051631e4fbdf760e01b815260006004820152602401610662565b61195b81611abc565b50565b60006001600160e01b03198216632483248360e11b148061053f575061053f82611de1565b6000818152600260205260408120546001600160a01b03168061053f57604051637e27328960e01b815260048101849052602401610662565b610d348383836001611e31565b6002600854036119ec57604051633ee5aeb560e01b815260040160405180910390fd5b6002600855565b61060b828260405180602001604052806000815250611f37565b6000828152600660205260409020611a258282612850565b506040518281527ff8e1a15aba9398e019f0b49df1a4fde98ee17ae345cb5f6b5e2c27f5033e8ce79060200160405180910390a15050565b6000908152600260205260409020546001600160a01b0316151590565b6000611a87848484611f4f565b949350505050565b6007546001600160a01b0316331461102e5760405163118cdaa760e01b8152336004820152602401610662565b600780546001600160a01b038381166001600160a01b0319831681179093556040519116919082907f8be0079c531659141344cd1fd0a4f28419497f9722a3daafe3b4186f6b6457e090600090a35050565b6001600160a01b038216611b4057604051630b61174360e31b81526001600160a01b0383166004820152602401610662565b6001600160a01b03838116600081815260056020908152604080832094871680845294825291829020805460ff191686151590811790915591519182527f17307eab39ab6107e8899845ad3d59bd9653f200f220920489ca2b5937696c31910160405180910390a3505050565b6001600160a01b0383163b15611cd157604051630a85bd0160e11b81526001600160a01b0384169063150b7a0290611bef9088908890879087906004016129b5565b6020604051808303816000875af1925050508015611c2a575060408051601f3d908101601f19168201909252611c27918101906129f2565b60015b611c93573d808015611c58576040519150601f19603f3d011682016040523d82523d6000602084013e611c5d565b606091505b508051600003611c8b57604051633250574960e11b81526001600160a01b0385166004820152602401610662565b805160208201fd5b6001600160e01b03198116630a85bd0160e11b14611ccf57604051633250574960e11b81526001600160a01b0385166004820152602401610662565b505b5050505050565b6060611ce382611983565b5060008281526006602052604081208054611cfd906127a0565b80601f0160208091040260200160405190810160405280929190818152602001828054611d29906127a0565b8015611d765780601f10611d4b57610100808354040283529160200191611d76565b820191906000526020600020905b815481529060010190602001808311611d5957829003601f168201915b505050505090506000611d9460408051602081019091526000815290565b90508051600003611da6575092915050565b815115611dd8578082604051602001611dc0929190612a0f565b60405160208183030381529060405292505050919050565b611a8784612048565b60006001600160e01b031982166380ac58cd60e01b1480611e1257506001600160e01b03198216635b5e139f60e01b145b8061053f57506301ffc9a760e01b6001600160e01b031983161461053f565b8080611e4557506001600160a01b03821615155b15611f07576000611e5584611983565b90506001600160a01b03831615801590611e815750826001600160a01b0316816001600160a01b031614155b8015611e945750611e9281846118f2565b155b15611ebd5760405163a9fbf51f60e01b81526001600160a01b0384166004820152602401610662565b8115611f055783856001600160a01b0316826001600160a01b03167f8c5be1e5ebec7d5bd14f71427d1e84f3dd0314c0f7b2291e5b200ac8c7c3b92560405160405180910390a45b505b5050600090815260046020526040902080546001600160a01b0319166001600160a01b0392909216919091179055565b611f4183836120bc565b610d34336000858585611bad565b6000828152600260205260408120546001600160a01b0390811690831615611f7c57611f7c818486612121565b6001600160a01b03811615611fba57611f99600085600080611e31565b6001600160a01b038116600090815260036020526040902080546000190190555b6001600160a01b03851615611fe9576001600160a01b0385166000908152600360205260409020805460010190555b60008481526002602052604080822080546001600160a01b0319166001600160a01b0389811691821790925591518793918516917fddf252ad1be2c89b69c2b068fc378daa952ba7f163c4a11628f55a4df523b3ef91a4949350505050565b606061205382611983565b50600061206b60408051602081019091526000815290565b9050600081511161208b5760405180602001604052806000815250610878565b8061209584612185565b6040516020016120a6929190612a0f565b6040516020818303038152906040529392505050565b6001600160a01b0382166120e657604051633250574960e11b815260006004820152602401610662565b60006120f483836000611a7a565b90506001600160a01b03811615610d34576040516339e3563760e11b815260006004820152602401610662565b61212c838383612218565b610d34576001600160a01b03831661215a57604051637e27328960e01b815260048101829052602401610662565b60405163177e802f60e01b81526001600160a01b038316600482015260248101829052604401610662565b606060006121928361227b565b600101905060008167ffffffffffffffff8111156121b2576121b2612448565b6040519080825280601f01601f1916602001820160405280156121dc576020820181803683370190505b5090508181016020015b600019016f181899199a1a9b1b9c1cb0b131b232b360811b600a86061a8153600a85049450846121e657509392505050565b60006001600160a01b03831615801590611a875750826001600160a01b0316846001600160a01b03161480612252575061225284846118f2565b80611a875750506000908152600460205260409020546001600160a01b03908116911614919050565b60008072184f03e93ff9f4daa797ed6e38ed64bf6a1f0160401b83106122ba5772184f03e93ff9f4daa797ed6e38ed64bf6a1f0160401b830492506040015b6d04ee2d6d415b85acef810000000083106122e6576d04ee2d6d415b85acef8100000000830492506020015b662386f26fc10000831061230457662386f26fc10000830492506010015b6305f5e100831061231c576305f5e100830492506008015b612710831061233057612710830492506004015b60648310612342576064830492506002015b600a831061053f5760010192915050565b6001600160e01b03198116811461195b57600080fd5b60006020828403121561237b57600080fd5b813561087881612353565b60005b838110156123a1578181015183820152602001612389565b50506000910152565b600081518084526123c2816020860160208601612386565b601f01601f19169290920160200192915050565b60208152600061087860208301846123aa565b6000602082840312156123fb57600080fd5b5035919050565b80356001600160a01b038116811461241957600080fd5b919050565b6000806040838503121561243157600080fd5b61243a83612402565b946020939093013593505050565b634e487b7160e01b600052604160045260246000fd5b60008067ffffffffffffffff84111561247957612479612448565b50604051601f19601f85018116603f0116810181811067ffffffffffffffff821117156124a8576124a8612448565b6040528381529050808284018510156124c057600080fd5b83836020830137600060208583010152509392505050565b600082601f8301126124e957600080fd5b6108788383356020850161245e565b60008060006060848603121561250d57600080fd5b833567ffffffffffffffff81111561252457600080fd5b612530868287016124d8565b93505061253f60208501612402565b929592945050506040919091013590565b60008060006060848603121561256557600080fd5b61256e84612402565b925061253f60208501612402565b6000806040838503121561258f57600080fd5b8235915061259f60208401612402565b90509250929050565b6000602082840312156125ba57600080fd5b61087882612402565b602080825282518282018190526000918401906040840190835b818110156125fb5783518352602093840193909201916001016125dd565b509095945050505050565b6000806040838503121561261957600080fd5b82359150602083013567ffffffffffffffff81111561263757600080fd5b612643858286016124d8565b9150509250929050565b60e08152600061266060e083018a6123aa565b6001600160a01b0398891660208401529690971660408201526060810194909452608084019290925260a0830152151560c09091015292915050565b600080604083850312156126af57600080fd5b50508035926020909101359150565b600080604083850312156126d157600080fd5b6126da83612402565b9150602083013580151581146126ef57600080fd5b809150509250929050565b6000806000806080858703121561271057600080fd5b61271985612402565b935061272760208601612402565b925060408501359150606085013567ffffffffffffffff81111561274a57600080fd5b8501601f8101871361275b57600080fd5b61276a8782356020840161245e565b91505092959194509250565b6000806040838503121561278957600080fd5b61279283612402565b915061259f60208401612402565b600181811c908216806127b457607f821691505b6020821081036127d457634e487b7160e01b600052602260045260246000fd5b50919050565b634e487b7160e01b600052601160045260246000fd5b600060018201612802576128026127da565b5060010190565b601f821115610d3457806000526020600020601f840160051c810160208510156128305750805b601f840160051c820191505b81811015611cd1576000815560010161283c565b815167ffffffffffffffff81111561286a5761286a612448565b61287e8161287884546127a0565b84612809565b6020601f8211600181146128b2576000831561289a5750848201515b600019600385901b1c1916600184901b178455611cd1565b600084815260208120601f198516915b828110156128e257878501518255602094850194600190920191016128c2565b50848210156129005786840151600019600387901b60f8161c191681555b50505050600190811b01905550565b8082018082111561053f5761053f6127da565b60208082526013908201527215da5b1b08191bd95cc81b9bdd08195e1a5cdd606a1b604082015260600190565b60208082526015908201527415da5b1b08185b1c9958591e48195e1958dd5d1959605a1b604082015260600190565b6020808252601b908201527f43616e6e6f74207570646174652065786563757465642077696c6c0000000000604082015260600190565b6001600160a01b03858116825284166020820152604081018390526080606082018190526000906129e8908301846123aa565b9695505050505050565b600060208284031215612a0457600080fd5b815161087881612353565b60008351612a21818460208801612386565b835190830190612a35818360208801612386565b0194935050505056fea2646970667358221220044074d84294e9c946302378ce960d7875d58fa4f00e304c896538a3df6eef6d64736f6c634300081c0033",
  "linkReferences": {},
  "deployedLinkReferences": {}
}