{
  "_format": "hh-sol-artifact-1",
  "contractName": "WillExecutor",
  "sourceName": "contracts/WillExecutor.sol",
  "abi": [
    {
      "inputs": [
        {
          "internalType": "address",
          "name": "_willsNFTAddress",
          "type": "address"
        },
        {
          "internalType": "address",
          "name": "_feeRecipient",
          "type": "address"
        }
      ],
      "stateMutability": "nonpayable",
      "type": "constructor"
    },
    {
      "inputs": [
        {
          "internalType": "address",
          "name": "owner",
          "type": "address"
        }
      ],
      "name": "OwnableInvalidOwner",
      "type": "error"
    },
    {
      "inputs": [
        {
          "internalType": "address",
          "name": "account",
          "type": "address"
        }
      ],
      "name": "OwnableUnauthorizedAccount",
      "type": "error"
    },
    {
      "inputs": [],
      "name": "ReentrancyGuardReentrantCall",
      "type": "error"
    },
    {
      "anonymous": false,
      "inputs": [
        {
          "indexed": true,
          "internalType": "uint256",
          "name": "tokenId",
          "type": "uint256"
        },
        {
          "indexed": true,
          "internalType": "address",
          "name": "beneficiary",
          "type": "address"
        },
        {
          "indexed": true,
          "internalType": "address",
          "name": "token",
          "type": "address"
        },
        {
          "indexed": false,
          "internalType": "uint256",
          "name": "amount",
          "type": "uint256"
        }
      ],
      "name": "ERC20Distributed",
      "type": "event"
    },
    {
      "anonymous": false,
      "inputs": [
        {
          "indexed": true,
          "internalType": "uint256",
          "name": "tokenId",
          "type": "uint256"
        },
        {
          "indexed": true,
          "internalType": "address",
          "name": "beneficiary",
          "type": "address"
        },
        {
          "indexed": true,
          "internalType": "address",
          "name": "token",
          "type": "address"
        },
        {
          "indexed": false,
          "internalType": "uint256",
          "name": "tokenId_",
          "type": "uint256"
        }
      ],
      "name": "ERC721Distributed",
      "type": "event"
    },
    {
      "anonymous": false,
      "inputs": [
        {
          "indexed": true,
          "internalType": "uint256",
          "name": "tokenId",
          "type": "uint256"
        },
        {
          "indexed": true,
          "internalType": "address",
          "name": "beneficiary",
          "type": "address"
        },
        {
          "indexed": false,
          "internalType": "uint256",
          "name": "amount",
          "type": "uint256"
        }
      ],
      "name": "ETHDistributed",
      "type": "event"
    },
    {
      "anonymous": false,
      "inputs": [
        {
          "indexed": true,
          "internalType": "uint256",
          "name": "tokenId",
          "type": "uint256"
        },
        {
          "indexed": false,
          "internalType": "uint256",
          "name": "timestamp",
          "type": "uint256"
        }
      ],
      "name": "ExecutionCompleted",
      "type": "event"
    },
    {
      "anonymous": false,
      "inputs": [
        {
          "indexed": true,
          "internalType": "uint256",
          "name": "tokenId",
          "type": "uint256"
        },
        {
          "indexed": false,
          "internalType": "string",
          "name": "reason",
          "type": "string"
        }
      ],
      "name": "ExecutionFailed",
      "type": "event"
    },
    {
      "anonymous": false,
      "inputs": [
        {
          "indexed": true,
          "internalType": "address",
          "name": "previousOwner",
          "type": "address"
        },
        {
          "indexed": true,
          "internalType": "address",
          "name": "newOwner",
          "type": "address"
        }
      ],
      "name": "OwnershipTransferred",
      "type": "event"
    },
    {
      "anonymous": false,
      "inputs": [
        {
          "indexed": true,
          "internalType": "uint256",
          "name": "tokenId",
          "type": "uint256"
        },
        {
          "indexed": true,
          "internalType": "address",
          "name": "executor",
          "type": "address"
        }
      ],
      "name": "WillExecutionStarted",
      "type": "event"
    },
    {
      "inputs": [],
      "name": "MAX_FEE_PERCENTAGE",
      "outputs": [
        {
          "internalType": "uint256",
          "name": "",
          "type": "uint256"
        }
      ],
      "stateMutability": "view",
      "type": "function"
    },
    {
      "inputs": [
        {
          "internalType": "uint256",
          "name": "tokenId",
          "type": "uint256"
        },
        {
          "components": [
            {
              "components": [
                {
                  "internalType": "address",
                  "name": "beneficiary",
                  "type": "address"
                },
                {
                  "internalType": "uint256",
                  "name": "amount",
                  "type": "uint256"
                }
              ],
              "internalType": "struct WillExecutor.ETHDistribution[]",
              "name": "ethDistributions",
              "type": "tuple[]"
            },
            {
              "components": [
                {
                  "internalType": "address",
                  "name": "beneficiary",
                  "type": "address"
                },
                {
                  "internalType": "address",
                  "name": "tokenContract",
                  "type": "address"
                },
                {
                  "internalType": "uint256",
                  "name": "amount",
                  "type": "uint256"
                }
              ],
              "internalType": "struct WillExecutor.ERC20Distribution[]",
              "name": "erc20Distributions",
              "type": "tuple[]"
            },
            {
              "components": [
                {
                  "internalType": "address",
                  "name": "beneficiary",
                  "type": "address"
                },
                {
                  "internalType": "address",
                  "name": "tokenContract",
                  "type": "address"
                },
                {
                  "internalType": "uint256",
                  "name": "tokenId",
                  "type": "uint256"
                }
              ],
              "internalType": "struct WillExecutor.ERC721Distribution[]",
              "name": "erc721Distributions",
              "type": "tuple[]"
            },
            {
              "internalType": "bytes32",
              "name": "instructionHash",
              "type": "bytes32"
            }
          ],
          "internalType": "struct WillExecutor.ExecutionInstruction",
          "name": "instructions",
          "type": "tuple"
        }
      ],
      "name": "_executeDistributions",
      "outputs": [],
      "stateMutability": "nonpayable",
      "type": "function"
    },
    {
      "inputs": [
        {
          "internalType": "uint256",
          "name": "tokenId",
          "type": "uint256"
        }
      ],
      "name": "canExecuteWill",
      "outputs": [
        {
          "internalType": "bool",
          "name": "",
          "type": "bool"
        }
      ],
      "stateMutability": "view",
      "type": "function"
    },
    {
      "inputs": [
        {
          "internalType": "uint256",
          "name": "tokenId",
          "type": "uint256"
        },
        {
          "components": [
            {
              "components": [
                {
                  "internalType": "address",
                  "name": "beneficiary",
                  "type": "address"
                },
                {
                  "internalType": "uint256",
                  "name": "amount",
                  "type": "uint256"
                }
              ],
              "internalType": "struct WillExecutor.ETHDistribution[]",
              "name": "ethDistributions",
              "type": "tuple[]"
            },
            {
              "components": [
                {
                  "internalType": "address",
                  "name": "beneficiary",
                  "type": "address"
                },
                {
                  "internalType": "address",
                  "name": "tokenContract",
                  "type": "address"
                },
                {
                  "internalType": "uint256",
                  "name": "amount",
                  "type": "uint256"
                }
              ],
              "internalType": "struct WillExecutor.ERC20Distribution[]",
              "name": "erc20Distributions",
              "type": "tuple[]"
            },
            {
              "components": [
                {
                  "internalType": "address",
                  "name": "beneficiary",
                  "type": "address"
                },
                {
                  "internalType": "address",
                  "name": "tokenContract",
                  "type": "address"
                },
                {
                  "internalType": "uint256",
                  "name": "tokenId",
                  "type": "uint256"
                }
              ],
              "internalType": "struct WillExecutor.ERC721Distribution[]",
              "name": "erc721Distributions",
              "type": "tuple[]"
            },
            {
              "internalType": "bytes32",
              "name": "instructionHash",
              "type": "bytes32"
            }
          ],
          "internalType": "struct WillExecutor.ExecutionInstruction",
          "name": "instructions",
          "type": "tuple"
        }
      ],
      "name": "emergencyExecuteWill",
      "outputs": [],
      "stateMutability": "nonpayable",
      "type": "function"
    },
    {
      "inputs": [
        {
          "internalType": "address",
          "name": "token",
          "type": "address"
        },
        {
          "internalType": "uint256",
          "name": "amount",
          "type": "uint256"
        }
      ],
      "name": "emergencyTokenRecovery",
      "outputs": [],
      "stateMutability": "nonpayable",
      "type": "function"
    },
    {
      "inputs": [
        {
          "internalType": "uint256",
          "name": "tokenId",
          "type": "uint256"
        },
        {
          "components": [
            {
              "components": [
                {
                  "internalType": "address",
                  "name": "beneficiary",
                  "type": "address"
                },
                {
                  "internalType": "uint256",
                  "name": "amount",
                  "type": "uint256"
                }
              ],
              "internalType": "struct WillExecutor.ETHDistribution[]",
              "name": "ethDistributions",
              "type": "tuple[]"
            },
            {
              "components": [
                {
                  "internalType": "address",
                  "name": "beneficiary",
                  "type": "address"
                },
                {
                  "internalType": "address",
                  "name": "tokenContract",
                  "type": "address"
                },
                {
                  "internalType": "uint256",
                  "name": "amount",
                  "type": "uint256"
                }
              ],
              "internalType": "struct WillExecutor.ERC20Distribution[]",
              "name": "erc20Distributions",
              "type": "tuple[]"
            },
            {
              "components": [
                {
                  "internalType": "address",
                  "name": "beneficiary",
                  "type": "address"
                },
                {
                  "internalType": "address",
                  "name": "tokenContract",
                  "type": "address"
                },
                {
                  "internalType": "uint256",
                  "name": "tokenId",
                  "type": "uint256"
                }
              ],
              "internalType": "struct WillExecutor.ERC721Distribution[]",
              "name": "erc721Distributions",
              "type": "tuple[]"
            },
            {
              "internalType": "bytes32",
              "name": "instructionHash",
              "type": "bytes32"
            }
          ],
          "internalType": "struct WillExecutor.ExecutionInstruction",
          "name": "instructions",
          "type": "tuple"
        }
      ],
      "name": "executeWill",
      "outputs": [],
      "stateMutability": "nonpayable",
      "type": "function"
    },
    {
      "inputs": [],
      "name": "executionFeePercentage",
      "outputs": [
        {
          "internalType": "uint256",
          "name": "",
          "type": "uint256"
        }
      ],
      "stateMutability": "view",
      "type": "function"
    },
    {
      "inputs": [
        {
          "internalType": "uint256",
          "name": "",
          "type": "uint256"
        }
      ],
      "name": "executionStatuses",
      "outputs": [
        {
          "internalType": "bool",
          "name": "isExecuted",
          "type": "bool"
        },
        {
          "internalType": "bool",
          "name": "isInitiated",
          "type": "bool"
        },
        {
          "internalType": "uint256",
          "name": "executionTimestamp",
          "type": "uint256"
        },
        {
          "internalType": "address",
          "name": "executor",
          "type": "address"
        },
        {
          "internalType": "string",
          "name": "failureReason",
          "type": "string"
        }
      ],
      "stateMutability": "view",
      "type": "function"
    },
    {
      "inputs": [],
      "name": "feeRecipient",
      "outputs": [
        {
          "internalType": "address",
          "name": "",
          "type": "address"
        }
      ],
      "stateMutability": "view",
      "type": "function"
    },
    {
      "inputs": [
        {
          "internalType": "uint256",
          "name": "tokenId",
          "type": "uint256"
        }
      ],
      "name": "getExecutionStatus",
      "outputs": [
        {
          "components": [
            {
              "internalType": "bool",
              "name": "isExecuted",
              "type": "bool"
            },
            {
              "internalType": "bool",
              "name": "isInitiated",
              "type": "bool"
            },
            {
              "internalType": "uint256",
              "name": "executionTimestamp",
              "type": "uint256"
            },
            {
              "internalType": "address",
              "name": "executor",
              "type": "address"
            },
            {
              "internalType": "string",
              "name": "failureReason",
              "type": "string"
            }
          ],
          "internalType": "struct WillExecutor.ExecutionStatus",
          "name": "",
          "type": "tuple"
        }
      ],
      "stateMutability": "view",
      "type": "function"
    },
    {
      "inputs": [
        {
          "internalType": "uint256",
          "name": "",
          "type": "uint256"
        }
      ],
      "name": "instructionHashes",
      "outputs": [
        {
          "internalType": "bytes32",
          "name": "",
          "type": "bytes32"
        }
      ],
      "stateMutability": "view",
      "type": "function"
    },
    {
      "inputs": [],
      "name": "owner",
      "outputs": [
        {
          "internalType": "address",
          "name": "",
          "type": "address"
        }
      ],
      "stateMutability": "view",
      "type": "function"
    },
    {
      "inputs": [],
      "name": "renounceOwnership",
      "outputs": [],
      "stateMutability": "nonpayable",
      "type": "function"
    },
    {
      "inputs": [
        {
          "internalType": "uint256",
          "name": "_feePercentage",
          "type": "uint256"
        }
      ],
      "name": "setExecutionFeePercentage",
      "outputs": [],
      "stateMutability": "nonpayable",
      "type": "function"
    },
    {
      "inputs": [
        {
          "internalType": "address",
          "name": "_feeRecipient",
          "type": "address"
        }
      ],
      "name": "setFeeRecipient",
      "outputs": [],
      "stateMutability": "nonpayable",
      "type": "function"
    },
    {
      "inputs": [
        {
          "internalType": "address",
          "name": "newOwner",
          "type": "address"
        }
      ],
      "name": "transferOwnership",
      "outputs": [],
      "stateMutability": "nonpayable",
      "type": "function"
    },
    {
      "inputs": [],
      "name": "willsNFT",
      "outputs": [
        {
          "internalType": "contract WillsNFT",
          "name": "",
          "type": "address"
        }
      ],
      "stateMutability": "view",
      "type": "function"
    },
    {
      "inputs": [],
      "name": "withdrawBalance",
      "outputs": [],
      "stateMutability": "nonpayable",
      "type": "function"
    },
    {
      "stateMutability": "payable",
      "type": "receive"
    }
  ],
  "bytecode": "0x60a0604052606460045534801561001557600080fd5b50604051612b0d380380612b0d833981016040819052610034916101a9565b338061005b57604051631e4fbdf760e01b8152600060048201526024015b60405180910390fd5b6100648161013d565b50600180556001600160a01b0382166100bf5760405162461bcd60e51b815260206004820152601f60248201527f57696c6c734e465420616464726573732063616e6e6f74206265207a65726f006044820152606401610052565b6001600160a01b0381166101155760405162461bcd60e51b815260206004820152601c60248201527f46656520726563697069656e742063616e6e6f74206265207a65726f000000006044820152606401610052565b6001600160a01b03918216608052600580546001600160a01b031916919092161790556101dc565b600080546001600160a01b038381166001600160a01b0319831681178455604051919092169283917f8be0079c531659141344cd1fd0a4f28419497f9722a3daafe3b4186f6b6457e09190a35050565b80516001600160a01b03811681146101a457600080fd5b919050565b600080604083850312156101bc57600080fd5b6101c58361018d565b91506101d36020840161018d565b90509250929050565b6080516128d76102366000396000818161030b015281816103cd0152818161049c015281816105910152818161092e01528181610ae901528181610bb101528181610f6b015281816110ec015261118401526128d76000f3fe60806040526004361061010d5760003560e01c806385e8201a11610095578063d97b1bc211610064578063d97b1bc2146102f9578063e2655b411461032d578063e74b981b1461034d578063f2fde38b1461036d578063fd98da511461038d57600080fd5b806385e8201a146102615780638da5cb5b1461028e578063b49b0cb3146102ac578063d787276e146102cc57600080fd5b8063558e44d3116100dc578063558e44d3146101cd5780635fd8c710146101f1578063715018a6146102065780637b2958ff1461021b5780637f4799021461024b57600080fd5b806312bcefae1461011957806320d381c21461013b57806346904840146101755780634b6a9772146101ad57600080fd5b3661011457005b600080fd5b34801561012557600080fd5b5061013961013436600461217b565b6103ad565b005b34801561014757600080fd5b5061015b610156366004612260565b6109ff565b60405161016c9594939291906122c9565b60405180910390f35b34801561018157600080fd5b50600554610195906001600160a01b031681565b6040516001600160a01b03909116815260200161016c565b3480156101b957600080fd5b506101396101c836600461217b565b610ac9565b3480156101d957600080fd5b506101e36101f481565b60405190815260200161016c565b3480156101fd57600080fd5b50610139611037565b34801561021257600080fd5b506101396110bf565b34801561022757600080fd5b5061023b610236366004612260565b6110d3565b604051901515815260200161016c565b34801561025757600080fd5b506101e360045481565b34801561026d57600080fd5b506101e361027c366004612260565b60036020526000908152604090205481565b34801561029a57600080fd5b506000546001600160a01b0316610195565b3480156102b857600080fd5b506101396102c7366004612300565b61123d565b3480156102d857600080fd5b506102ec6102e7366004612260565b61132a565b60405161016c919061232c565b34801561030557600080fd5b506101957f000000000000000000000000000000000000000000000000000000000000000081565b34801561033957600080fd5b5061013961034836600461217b565b61145d565b34801561035957600080fd5b50610139610368366004612383565b6114cb565b34801561037957600080fd5b50610139610388366004612383565b611557565b34801561039957600080fd5b506101396103a8366004612260565b611595565b6103b56115f4565b604051634f558e7960e01b81526004810183905282907f00000000000000000000000000000000000000000000000000000000000000006001600160a01b031690634f558e7990602401602060405180830381865afa15801561041c573d6000803e3d6000fd5b505050506040513d601f19601f8201168201806040525081019061044091906123a0565b6104845760405162461bcd60e51b815260206004820152601060248201526f125b9d985b1a59081d1bdad95b88125160821b60448201526064015b60405180910390fd5b604051630486ade760e41b81526004810184905283907f00000000000000000000000000000000000000000000000000000000000000006001600160a01b03169063486ade7090602401602060405180830381865afa1580156104eb573d6000803e3d6000fd5b505050506040513d601f19601f8201168201806040525081019061050f91906123c2565b6001600160a01b0316336001600160a01b03161461057b5760405162461bcd60e51b8152602060048201526024808201527f4f6e6c792064657369676e61746564206578656375746f722063616e206578656044820152636375746560e01b606482015260840161047b565b604051630470430b60e41b8152600481018290527f00000000000000000000000000000000000000000000000000000000000000006001600160a01b03169063470430b090602401602060405180830381865afa1580156105e0573d6000803e3d6000fd5b505050506040513d601f19601f8201168201806040525081019061060491906123a0565b156106215760405162461bcd60e51b815260040161047b906123df565b60008481526002602052604090205460ff16156106505760405162461bcd60e51b815260040161047b906123df565b600084815260026020526040902054610100900460ff16156106b45760405162461bcd60e51b815260206004820152601b60248201527f457865637574696f6e20616c726561647920696e697469617465640000000000604482015260640161047b565b6000848152600260208190526040808320805461ff00191661010017815590910180546001600160a01b031916339081179091559051909186917f698fbfb528c5c4b5f21377364a3df473bfcf07ace12b435654871ca6c3fd2b859190a360405163e2655b4160e01b8152309063e2655b41906107379087908790600401612471565b600060405180830381600087803b15801561075157600080fd5b505af1925050508015610762575060015b6109125761076e61252d565b806308c379a00361080f5750610782612549565b8061078d5750610811565b6000858152600260205260409020805461ff00191681556003016107b1828261264f565b5084600080516020612882833981519152826040516107d0919061270e565b60405180910390a2806040516020016107e99190612721565b60408051601f198184030181529082905262461bcd60e51b825261047b9160040161270e565b505b6000848152600260208181526040808420805461ff0019168155815180830190925260178252762ab735b737bbb71032bc32b1baba34b7b71032b93937b960491b828401529388905291905260039091019061086d908261264f565b50836000805160206128828339815191526040516108b6906020808252601790820152762ab735b737bbb71032bc32b1baba34b7b71032b93937b960491b604082015260600190565b60405180910390a260405162461bcd60e51b815260206004820152602360248201527f457865637574696f6e206661696c6564207769746820756e6b6e6f776e2065726044820152623937b960e91b606482015260840161047b565b6040516309af18a760e21b8152600481018590523360248201527f00000000000000000000000000000000000000000000000000000000000000006001600160a01b0316906326bc629c90604401600060405180830381600087803b15801561097a57600080fd5b505af115801561098e573d6000803e3d6000fd5b50505060008581526002602052604090819020805460ff19166001908117825542910181905590518692507f70114d139c12c9f15fb8a74cc0b9d9f2070f048d32cdf038844425444bad7b52916109e89190815260200190565b60405180910390a250506109fb60018055565b5050565b6002602081905260009182526040909120805460018201549282015460038301805460ff8085169661010090950416946001600160a01b03909316929190610a46906125ce565b80601f0160208091040260200160405190810160405280929190818152602001828054610a72906125ce565b8015610abf5780601f10610a9457610100808354040283529160200191610abf565b820191906000526020600020905b815481529060010190602001808311610aa257829003601f168201915b5050505050905085565b610ad16115f4565b604051634f558e7960e01b81526004810183905282907f00000000000000000000000000000000000000000000000000000000000000006001600160a01b031690634f558e7990602401602060405180830381865afa158015610b38573d6000803e3d6000fd5b505050506040513d601f19601f82011682018060405250810190610b5c91906123a0565b610b9b5760405162461bcd60e51b815260206004820152601060248201526f125b9d985b1a59081d1bdad95b88125160821b604482015260640161047b565b60405163067b473360e21b8152600481018490527f00000000000000000000000000000000000000000000000000000000000000006001600160a01b0316906319ed1ccc90602401602060405180830381865afa158015610c00573d6000803e3d6000fd5b505050506040513d601f19601f82011682018060405250810190610c2491906123a0565b610c7a5760405162461bcd60e51b815260206004820152602160248201527f456d657267656e637920657865637574696f6e206e6f7420617661696c61626c6044820152606560f81b606482015260840161047b565b60008381526002602052604090205460ff1615610ca95760405162461bcd60e51b815260040161047b906123df565b600083815260026020526040902054610100900460ff1615610d0d5760405162461bcd60e51b815260206004820152601b60248201527f457865637574696f6e20616c726561647920696e697469617465640000000000604482015260640161047b565b6000838152600260208190526040808320805461ff00191661010017815590910180546001600160a01b031916339081179091559051909185917f698fbfb528c5c4b5f21377364a3df473bfcf07ace12b435654871ca6c3fd2b859190a360405163e2655b4160e01b8152309063e2655b4190610d909086908690600401612471565b600060405180830381600087803b158015610daa57600080fd5b505af1925050508015610dbb575060015b610f4f57610dc761252d565b806308c379a003610e425750610ddb612549565b80610de65750610e44565b6000848152600260205260409020805461ff0019168155600301610e0a828261264f565b508360008051602061288283398151915282604051610e29919061270e565b60405180910390a2806040516020016107e9919061275b565b505b6000838152600260208181526040808420805461ff0019168155815180830190925260178252762ab735b737bbb71032bc32b1baba34b7b71032b93937b960491b8284015293879052919052600390910190610ea0908261264f565b5082600080516020612882833981519152604051610ee9906020808252601790820152762ab735b737bbb71032bc32b1baba34b7b71032b93937b960491b604082015260600190565b60405180910390a260405162461bcd60e51b815260206004820152602d60248201527f456d657267656e637920657865637574696f6e206661696c656420776974682060448201526c3ab735b737bbb71032b93937b960991b606482015260840161047b565b60405163abdc0c2160e01b8152600481018490523360248201527f00000000000000000000000000000000000000000000000000000000000000006001600160a01b03169063abdc0c2190604401600060405180830381600087803b158015610fb757600080fd5b505af1158015610fcb573d6000803e3d6000fd5b50505060008481526002602052604090819020805460ff19166001908117825542910181905590518592507f70114d139c12c9f15fb8a74cc0b9d9f2070f048d32cdf038844425444bad7b52916110259190815260200190565b60405180910390a2506109fb60018055565b61103f61161e565b47806110865760405162461bcd60e51b81526020600482015260166024820152754e6f2062616c616e636520746f20776974686472617760501b604482015260640161047b565b600080546040516001600160a01b039091169183156108fc02918491818181858888f193505050501580156109fb573d6000803e3d6000fd5b6110c761161e565b6110d1600061164b565b565b604051634f558e7960e01b8152600481018290526000907f00000000000000000000000000000000000000000000000000000000000000006001600160a01b031690634f558e7990602401602060405180830381865afa15801561113b573d6000803e3d6000fd5b505050506040513d601f19601f8201168201806040525081019061115f91906123a0565b61116b57506000919050565b604051630470430b60e41b8152600481018390526000907f00000000000000000000000000000000000000000000000000000000000000006001600160a01b03169063470430b090602401602060405180830381865afa1580156111d3573d6000803e3d6000fd5b505050506040513d601f19601f820116820180604052508101906111f791906123a0565b905080158015611216575060008381526002602052604090205460ff16155b80156112365750600083815260026020526040902054610100900460ff16155b9392505050565b61124561161e565b6001600160a01b0382166112935760405162461bcd60e51b8152602060048201526015602482015274496e76616c696420746f6b656e206164647265737360581b604482015260640161047b565b816001600160a01b031663a9059cbb6112b46000546001600160a01b031690565b6040516001600160e01b031960e084901b1681526001600160a01b039091166004820152602481018490526044016020604051808303816000875af1158015611301573d6000803e3d6000fd5b505050506040513d601f19601f8201168201806040525081019061132591906123a0565b505050565b6113696040518060a001604052806000151581526020016000151581526020016000815260200160006001600160a01b03168152602001606081525090565b600082815260026020818152604092839020835160a081018552815460ff8082161515835261010090910416151592810192909252600181015493820193909352908201546001600160a01b031660608201526003820180549192916080840191906113d4906125ce565b80601f0160208091040260200160405190810160405280929190818152602001828054611400906125ce565b801561144d5780601f106114225761010080835404028352916020019161144d565b820191906000526020600020905b81548152906001019060200180831161143057829003601f168201915b5050505050815250509050919050565b3330146114a15760405162461bcd60e51b81526020600482015260126024820152714f6e6c792073656c662d63616c6c61626c6560701b604482015260640161047b565b6114af82826000015161169b565b6114bd828260200151611907565b6109fb828260400151611ce0565b6114d361161e565b6001600160a01b0381166115355760405162461bcd60e51b8152602060048201526024808201527f46656520726563697069656e742063616e6e6f74206265207a65726f206164646044820152637265737360e01b606482015260840161047b565b600580546001600160a01b0319166001600160a01b0392909216919091179055565b61155f61161e565b6001600160a01b03811661158957604051631e4fbdf760e01b81526000600482015260240161047b565b6115928161164b565b50565b61159d61161e565b6101f48111156115ef5760405162461bcd60e51b815260206004820152601760248201527f4665652070657263656e7461676520746f6f2068696768000000000000000000604482015260640161047b565b600455565b60026001540361161757604051633ee5aeb560e01b815260040160405180910390fd5b6002600155565b6000546001600160a01b031633146110d15760405163118cdaa760e01b815233600482015260240161047b565b600080546001600160a01b038381166001600160a01b0319831681178455604051919092169283917f8be0079c531659141344cd1fd0a4f28419497f9722a3daafe3b4186f6b6457e09190a35050565b6000805b82518110156116db578281815181106116ba576116ba6127a0565b602002602001015160200151826116d191906127cc565b915060010161169f565b50806000036116e957505050565b6000612710600454836116fc91906127e5565b61170691906127fc565b9050600061171482846127cc565b9050804710156117665760405162461bcd60e51b815260206004820152601860248201527f496e73756666696369656e74204554482062616c616e63650000000000000000604482015260640161047b565b60005b84518110156118bd576000858281518110611786576117866127a0565b602002602001015160000151905060008683815181106117a8576117a86127a0565b602002602001015160200151905060006001600160a01b0316826001600160a01b0316036117e85760405162461bcd60e51b815260040161047b9061281e565b600081116118385760405162461bcd60e51b815260206004820152601b60248201527f496e76616c696420646973747269627574696f6e20616d6f756e740000000000604482015260640161047b565b6040516001600160a01b0383169082156108fc029083906000818181858888f1935050505015801561186e573d6000803e3d6000fd5b50816001600160a01b0316887fc374563b4a5754c388d7549cad33d522f814e8a0646a614584834f7f317e76c9836040516118ab91815260200190565b60405180910390a35050600101611769565b508115611900576005546040516001600160a01b039091169083156108fc029084906000818181858888f193505050501580156118fe573d6000803e3d6000fd5b505b5050505050565b60005b8151811015611325576000828281518110611927576119276127a0565b602090810291909101015180519091506001600160a01b031661195c5760405162461bcd60e51b815260040161047b9061281e565b60208101516001600160a01b03166119af5760405162461bcd60e51b8152602060048201526016602482015275125b9d985b1a59081d1bdad95b8818dbdb9d1c9858dd60521b604482015260640161047b565b6000816040015111611a035760405162461bcd60e51b815260206004820152601b60248201527f496e76616c696420646973747269627574696f6e20616d6f756e740000000000604482015260640161047b565b60208101516040516370a0823160e01b81523060048201526000906001600160a01b038316906370a0823190602401602060405180830381865afa158015611a4f573d6000803e3d6000fd5b505050506040513d601f19601f82011682018060405250810190611a739190612855565b90508260400151811015611ac95760405162461bcd60e51b815260206004820152601a60248201527f496e73756666696369656e7420746f6b656e2062616c616e6365000000000000604482015260640161047b565b60006127106004548560400151611ae091906127e5565b611aea91906127fc565b90506000818560400151611afe919061286e565b855160405163a9059cbb60e01b81526001600160a01b0391821660048201526024810183905291925085169063a9059cbb906044016020604051808303816000875af1158015611b52573d6000803e3d6000fd5b505050506040513d601f19601f82011682018060405250810190611b7691906123a0565b611bba5760405162461bcd60e51b8152602060048201526015602482015274151bdad95b881d1c985b9cd9995c8819985a5b1959605a1b604482015260640161047b565b8115611c795760055460405163a9059cbb60e01b81526001600160a01b039182166004820152602481018490529085169063a9059cbb906044016020604051808303816000875af1158015611c13573d6000803e3d6000fd5b505050506040513d601f19601f82011682018060405250810190611c3791906123a0565b611c795760405162461bcd60e51b8152602060048201526013602482015272119959481d1c985b9cd9995c8819985a5b1959606a1b604482015260640161047b565b84602001516001600160a01b031685600001516001600160a01b0316897ffe79ca86017e9c0f6c01355100038c0fb1b476a04b3cb8e8b4f2dc35ec1caa5c84604051611cc791815260200190565b60405180910390a450506001909301925061190a915050565b60005b8151811015611325576000828281518110611d0057611d006127a0565b602090810291909101015180519091506001600160a01b0316611d355760405162461bcd60e51b815260040161047b9061281e565b60208101516001600160a01b0316611d885760405162461bcd60e51b8152602060048201526016602482015275125b9d985b1a59081d1bdad95b8818dbdb9d1c9858dd60521b604482015260640161047b565b602081015160408083015190516331a9108f60e11b815230916001600160a01b03841691636352211e91611dc29160040190815260200190565b602060405180830381865afa158015611ddf573d6000803e3d6000fd5b505050506040513d601f19601f82011682018060405250810190611e0391906123c2565b6001600160a01b031614611e595760405162461bcd60e51b815260206004820152601960248201527f4e4654206e6f74206f776e6564206279206578656375746f7200000000000000604482015260640161047b565b81516040808401519051632142170760e11b81523060048201526001600160a01b0392831660248201526044810191909152908216906342842e0e90606401600060405180830381600087803b158015611eb257600080fd5b505af1158015611ec6573d6000803e3d6000fd5b5050505081602001516001600160a01b031682600001516001600160a01b0316867fbcf6bd3423e3d1198bd8f058448decc1480234861f3699ac7a4b9add7b3a4c448560400151604051611f1c91815260200190565b60405180910390a45050600101611ce3565b634e487b7160e01b600052604160045260246000fd5b6040810181811067ffffffffffffffff82111715611f6457611f64611f2e565b60405250565b6080810181811067ffffffffffffffff82111715611f6457611f64611f2e565b601f8201601f1916810167ffffffffffffffff81118282101715611fb057611fb0611f2e565b6040525050565b600067ffffffffffffffff821115611fd157611fd1611f2e565b5060051b60200190565b6001600160a01b038116811461159257600080fd5b600082601f83011261200157600080fd5b813561200c81611fb7565b6040516120198282611f8a565b80915082815260208101915060208360061b86010192508583111561203d57600080fd5b602085015b8381101561208d576040818803121561205a57600080fd5b60405161206681611f44565b813561207181611fdb565b8152602082810135818301529084529290920191604001612042565b5095945050505050565b600082601f8301126120a857600080fd5b81356020830160006120b983611fb7565b6040516120c68282611f8a565b8481526060909402830193602081019250878511156120e457600080fd5b848410156121705760009150606084890312156120ff578182fd5b6040516060810181811067ffffffffffffffff8211171561212257612122611f2e565b6040528435925061213283611fdb565b91825260208401359161214483611fdb565b8260208201526000925060408501359250826040820152808452506020830192506060840193506120e4565b979650505050505050565b6000806040838503121561218e57600080fd5b82359150602083013567ffffffffffffffff8111156121ac57600080fd5b8301608081860312156121be57600080fd5b6040516121ca81611f6a565b813567ffffffffffffffff8111156121e157600080fd5b6121ed87828501611ff0565b825250602082013567ffffffffffffffff81111561220a57600080fd5b61221687828501612097565b602083015250604082013567ffffffffffffffff81111561223657600080fd5b61224287828501612097565b60408301525060609182013591810191909152919491935090915050565b60006020828403121561227257600080fd5b5035919050565b60005b8381101561229457818101518382015260200161227c565b50506000910152565b600081518084526122b5816020860160208601612279565b601f01601f19169290920160200192915050565b8515158152841515602082015283604082015260018060a01b038316606082015260a06080820152600061217060a083018461229d565b6000806040838503121561231357600080fd5b823561231e81611fdb565b946020939093013593505050565b602081528151151560208201526020820151151560408201526040820151606082015260018060a01b0360608301511660808201526000608083015160a08084015261237b60c084018261229d565b949350505050565b60006020828403121561239557600080fd5b813561123681611fdb565b6000602082840312156123b257600080fd5b8151801515811461123657600080fd5b6000602082840312156123d457600080fd5b815161123681611fdb565b60208082526015908201527415da5b1b08185b1c9958591e48195e1958dd5d1959605a1b604082015260600190565b600081518084526020840193506020830160005b8281101561246757815180516001600160a01b039081168852602080830151909116818901526040918201519188019190915260609096019590910190600101612422565b5093949350505050565b82815260406020820152600060c0820183516080604085015281815180845260e086019150602083019350600092505b808310156124d857835180516001600160a01b031683526020908101518184015290930192600192909201916040909101906124a1565b506020860151858203603f1901606087015292506124f6818461240e565b925050506040840151603f19848303016080850152612515828261240e565b915050606084015160a0840152809150509392505050565b600060033d11156125465760046000803e5060005160e01c5b90565b600060443d10156125575790565b6040513d600319016004823e80513d602482011167ffffffffffffffff8211171561258157505090565b808201805167ffffffffffffffff81111561259d575050505090565b3d84016003190182820160200111156125b7575050505090565b6125c660208285010185611f8a565b509392505050565b600181811c908216806125e257607f821691505b60208210810361260257634e487b7160e01b600052602260045260246000fd5b50919050565b601f82111561132557806000526020600020601f840160051c8101602085101561262f5750805b601f840160051c820191505b81811015611900576000815560010161263b565b815167ffffffffffffffff81111561266957612669611f2e565b61267d8161267784546125ce565b84612608565b6020601f8211600181146126b157600083156126995750848201515b600019600385901b1c1916600184901b178455611900565b600084815260208120601f198516915b828110156126e157878501518255602094850194600190920191016126c1565b50848210156126ff5786840151600019600387901b60f8161c191681555b50505050600190811b01905550565b602081526000611236602083018461229d565b71022bc32b1baba34b7b7103330b4b632b21d160751b81526000825161274e816012850160208701612279565b9190910160120192915050565b7f456d657267656e637920657865637574696f6e206661696c65643a200000000081526000825161279381601c850160208701612279565b91909101601c0192915050565b634e487b7160e01b600052603260045260246000fd5b634e487b7160e01b600052601160045260246000fd5b808201808211156127df576127df6127b6565b92915050565b80820281158282048414176127df576127df6127b6565b60008261281957634e487b7160e01b600052601260045260246000fd5b500490565b6020808252601b908201527f496e76616c69642062656e656669636961727920616464726573730000000000604082015260600190565b60006020828403121561286757600080fd5b5051919050565b818103818111156127df576127df6127b656fe6a1be9b4621b808ecf355df902a73fdf3a617b6efb22d4f5cb515e441ea974b7a264697066735822122010c8d8677bb96a9c187da14d0698435912f859a9930befdcf454a59e4261534464736f6c634300081c0033",
  "linkReferences": {},
  "deployedLinkReferences": {}
}